:100000000C9467000C948F000C948F000C948F005C
:100010000C948F000C948F000C948F000C94F407B8
:100020000C948F000C948F000C948F000C948F0014
:100030000C948F000C948F000C948F000C948F0004
:100040000C9450080C948F000C948F000C948F002B
:100050000C948F000C948F000C948F000C948F00E4
:100060000C949A080C948F000000000024002700D4
:100070002A000000000023002600290000000009DB
:10008000000302000004050800000000000000005A
:100090000000000102040810204080010204081042
:1000A00020010204081020408040000000002500CC
:1000B00028002B00040404040404040402020202C5
:1000C000020203030303030302020302FA091124D9
:1000D0001FBECFEFD8E0DEBFCDBF22E0A6EAB1E081
:1000E00001C01D92AA3FB207E1F711E0A0E0B1E024
:1000F000E4E5F9E202C005900D92A63AB107D9F7FE
:1001000010E0C7E6D0E004C02197FE010E94B012C3
:10011000C636D107C9F70E949F0A0C94A8140C9404
:100120000000982F2091920281E0213208F043C014
:1001300080916F028111FCCF8091910232E0309367
:100140006F0290936E029FEF90936D0210926C027B
:1001500020936B02A1E7B2E0EBE4F2E090E0291318
:1001600031C010924A0290914A02880F892B8093E5
:100170004A0280914902813049F5109249028091EA
:100180004A028093BB008091BC0083FDF8CF85ECD0
:100190008093BC0080916F028230E1F380916D0208
:1001A0008F3FB1F080916D028032A1F080916D029D
:1001B000803391F084E01092930210929202109298
:1001C000700208953D9131939F5FC9CF85EEE0CFD6
:1001D00080E0F1CF82E0EFCF83E0EDCFAF92BF922E
:1001E000CF92DF92EF92FF920F931F93CF93DF9303
:1001F0006C017B018B01040F151FEB015E01AE1832
:10020000BF08C017D10759F06991D601ED91FC9153
:100210000190F081E02DC6010995892B79F7C50180
:10022000DF91CF911F910F91FF90EF90DF90CF90D2
:10023000BF90AF90089590E0FC01E458FF4F2491E7
:10024000FC01ED56FF4F3491FC01EC54FF4FE4915B
:10025000EE23C9F0222339F0243001F1A8F4223032
:1002600019F1233029F1F0E0EE0FFF1FE655FF4FA3
:10027000A591B4918FB7F894EC91611126C0309597
:100280003E233C938FBF08952830A9F02930C9F050
:10029000253049F7809180008F7D03C080918000D8
:1002A0008F7780938000DFCF84B58F7784BDDBCFDD
:1002B00084B58F7DFBCF8091B0008F778093B000A5
:1002C000D2CF8091B0008F7DF9CF3E2BDACF9091C5
:1002D000300189130BC0EBECF0E0E4919FEF9093B9
:1002E0003001E13049F028F0E23061F060E00C9438
:1002F0001B0110926E00FACF90916F009D7F90933A
:100300006F00F4CF909170009D7F9093700091E00A
:100310009093B0009091B100987F94609093B10059
:100320001092B300E3CFCF93DF9390E0FC01ED5642
:10033000FF4F24918C549F4FFC0184918823D1F06E
:1003400090E0880F991FFC01E859FF4FA591B491E7
:10035000FC01E655FF4FC591D49161110EC09FB7C6
:10036000F8948C91E22FE0958E238C932881E223E0
:10037000E8839FBFDF91CF9108958FB7F894EC91F8
:10038000E22BEC938FBFF6CF3FB7F89480910E022B
:1003900090910F02A0911002B091110226B5A89B76
:1003A00005C02F3F19F00196A11DB11D3FBFBA2F07
:1003B000A92F982F8827BC01CD01620F711D811DC7
:1003C000911D43E0660F771F881F991F4A95D1F74B
:1003D00008958F929F92AF92BF92CF92DF92EF9249
:1003E000FF926B017C010E94C4014B015C01C114AE
:1003F000D104E104F104B9F00E94C401681979093B
:100400008A099B09683E73408105910580F321E0CC
:10041000C21AD108E108F10888EE880E83E0981E20
:10042000A11CB11CE4CFFF90EF90DF90CF90BF9064
:10043000AF909F908F900895CF92DF92EF92FF92AE
:100440000F931F93CF938C018091D8029091D90282
:100450008F3F980719F061E00E941B018091D6023E
:100460009091D70220913001281741F12F3F09F4D4
:1004700055C064E670E080E090E00E94E901809160
:10048000D8029091D9028F3F980719F060E00E943E
:100490001B018091D6020E9467016091DA0270917F
:1004A000DB02072E000C880B990BCF911F910F9147
:1004B000FF90EF90DF90CF900C94E901EBECF0E02F
:1004C000C491C7FDD6CF61E00E949301C1113AC02B
:1004D0009801110F440B550B64E274EF80E090E03B
:1004E0000E949112BA01A901415051096109710993
:1004F00085B5887F836085BD47BD8FEF9FEFDC01A9
:100500008093450290934602A0934702B09348021D
:1005100080916E00826080936E00ABCF809330013B
:10052000EBECF0E0C491CF3F09F4A3CFC13009F464
:1005300052C0A0F1C23009F470C0C7FD9ACF61E08B
:100540000E9493019801110F440B550BC23009F022
:100550008AC068E478EE81E090E00E949112BA01CE
:10056000A90141505109610971098091B100887F49
:1005700083608093B1004093B3008FEF9FEFDC0165
:1005800080933D0290933E02A0933F02B0934002BD
:10059000809170008260809370006BCF14BC15BC9A
:1005A00024B5226024BD25B5216025BD9C013327DB
:1005B000F901EC54FF4FE491F0E0EE0FFF1FE65518
:1005C000FF4F45915491F901ED56FF4FE491E093AF
:1005D0003C02C0E078CF1092800010928100209100
:1005E0008100286020938100209181002160209368
:1005F00081009C013327F901EC54FF4FE491F0E0B6
:10060000EE0FFF1FE655FF4F45915491F901ED564E
:10061000FF4FE491E0933B0256CF1092B00010924E
:10062000B1002091B00022602093B0002091B10071
:1006300021602093B1009C013327F901EC54FF4F56
:10064000E491F0E0EE0FFF1FE655FF4F4591549106
:1006500050933A0240933902F901ED56FF4FE4916D
:10066000E093380230CF60E079E08DE390E00E94C3
:10067000911269017A0181E0C81AD108E108F108F4
:10068000A601C130D9F480918100887F8160809378
:100690008100D0928900C09288008FEF9FEFDC012B
:1006A0008093410290934202A0934302B09344028C
:1006B00080916F00826080936F00DBCEC23009F4BE
:1006C0005ACFC111D6CE18CF809194029091950245
:1006D000891B990B089585ED8093BC008091BC0027
:1006E00084FDFCCF10926F020895613298F420913E
:1006F0006F02243089F46093E601282FA6ECB1E064
:10070000FC018E2F821B861710F080E008958191E6
:100710008D93F7CF81E0089582E0089510926F02E3
:1007200081E080936E021092490261E082E10E94B2
:100730001B0161E083E10E941B01E9EBF0E0808195
:100740008E7F808380818D7F808380E28093B8005C
:1007500085E48093BC0008950895E091950280910E
:100760009402E81730F4F0E0EA55FE4F808190E003
:1007700008958FEF9FEF08959091950280919402D4
:100780002FEF3FEF981748F4E92FF0E0EA55FE4FBE
:10079000208130E09F5F90939502C9010895CF9228
:1007A000DF92EF92FF920F931F93CF93DF937C0121
:1007B000CB018A0120917002222389F0EB016B01A9
:1007C000C40ED51ECC15DD0569F06991D701ED91F8
:1007D000FC910190F081E02DC7010995F3CF642FC2
:1007E0000E947503C801DF91CF911F910F91FF9077
:1007F000EF90DF90CF900895CF93DF931F92CDB706
:10080000DEB76983209170022223F9F020919202D1
:10081000203258F021E030E0FC013383228390E065
:1008200080E00F90DF91CF91089580919302E82F9F
:10083000F0E0EF58FD4F998190838F5F8093930292
:100840008093920281E090E0ECCF61E0CE010196CE
:100850000E947503F7CFFC0101900020E9F7319762
:10086000AF01481B590BBC018CED92E00C94EE00DB
:100870008F929F92AF92BF920F931F93CF93DF936C
:10088000CDB7DEB7A1970FB6F894DEBF0FBECDBFD0
:1008900019A2423008F44AE08E010F5D1F4F842EEA
:1008A000912CB12CA12CA50194010E946F12E62F6E
:1008B000B901CA01EA30F4F4E05DD801EE938D018C
:1008C000232B242B252B79F790E080E0109719F04B
:1008D000CD010E942B04A1960FB6F894DEBF0FBE87
:1008E000CDBFDF91CF911F910F91BF90AF909F909F
:1008F0008F900895E95CE1CF0C942B04CF93DF93A4
:10090000EC0160E08E810E941B0161E08E810E94FB
:100910001B0160E08E810E941B0184EC90E0019736
:10092000F1F7DF91CF910895CF92DF92EF92FF928E
:100930000F931F93CF93DF936C017C0187E0E80E48
:10094000F11CD0E0C0E0062F10E0B8010C2E02C070
:10095000759567950A94E2F76170F70181917F01BF
:100960000E941B012196C430D10579F7C601DF91A1
:10097000CF911F910F91FF90EF90DF90CF900C944B
:100980007E04CF92DF92EF92FF920F931F93CF934B
:10099000DF93EC01F62E642F8C810E941B018D8168
:1009A0008F3F19F060E00E941B010F2D10E08F8532
:1009B00084FF25C06E0187E0C80ED11CF12CE12C0C
:1009C000B8010E2C02C0759567950A94E2F7617024
:1009D000F60181916F010E941B01FFEFEF1AFF0AE0
:1009E00088E0E816F10461F7CE01DF91CF911F9105
:1009F0000F91FF90EF90DF90CF900C947E04B801A0
:100A000084E0759567958A95E1F7CE010E9494047C
:100A10006F2DCE01DF91CF911F910F91FF90EF903D
:100A2000DF90CF900C94940441E00E94C10481E0D7
:100A300090E0089541E0682F8CED92E00E94C1049F
:100A400081E090E008954F925F926F927F928F9233
:100A50009F92AF92BF92CF92DF92EF92FF926B0183
:100A60007C01AC019B010E946A12882381F08FE413
:100A700091E0FF90EF90DF90CF90BF90AF909F906C
:100A80008F907F906F905F904F900C942B04460155
:100A90005701E894B7F82FEF3FEF4FE75FE7C50145
:100AA000B4010E946A1281110DC02FEF3FEF4FE792
:100AB0005FE7C501B4010E94F50F18161CF483E529
:100AC00091E0D7CF2FEF3FEF4FE75FE4C701B601CB
:100AD0000E94651218161CF487E591E0CACF2FEF2B
:100AE0003FEF4FE75FECC701B6010E94F50F87FDAE
:100AF000F3CF20E030E0A901C701B6010E94F50F55
:100B0000B12CA12C87FF08C08DE20E941A055C0160
:100B1000F7FAF094F7F8F0942AE037ED43EA5BE354
:100B2000C701B6010E9451112B013C010E943612EF
:100B30006B017C010E94FA0F9B01AC01C301B20161
:100B40000E9450112B013C014AE0C701B6010E94EE
:100B500038047C01EA0CFB1C8EE20E941A05E80EA8
:100B6000F91E20E030E040E251E4C301B2010E94EE
:100B70005B102B013C010E9436124B01B12CA12CC1
:100B80004AE0C501B4010E943804E80EF91EC5010F
:100B9000B4010E94FA0F9B01AC01C301B2010E9493
:100BA000501120E030E040E251E40E945B100E94CE
:100BB000361290E080E04AE00E9438048E0D9F1DBE
:100BC000FF90EF90DF90CF90BF90AF909F908F906D
:100BD0007F906F905F904F900895CF93DF93EC01DB
:100BE0000A971CF480E30E941A05BE01DD0F880BF2
:100BF000990B4AE0DF91CF910C94380440E00C94BB
:100C0000C1040F931F93CF93DF938B0198E0899FCB
:100C1000B001112460648CED92E00E94FE05E801B1
:100C2000085F1F4F69918CED92E00E941405C01778
:100C3000D107C1F7DF91CF911F910F910895909146
:100C4000EF02691710F06FEF690FE62FF0E0E45242
:100C5000FD4F6489680F60688CED92E00C94FE058E
:100C600061E00E94FE058CE99FE00197F1F708958D
:100C70000F931F93CF93DF93EC01623019F48F85AC
:100C800088608F876B8B1C8A80E48D8B80E18E8BD4
:100C900080E58F8B61E08C810E9493018D818F3F75
:100CA00019F061E00E94930161E08E810E9493013E
:100CB0008E0198012C1B3D0B8F8584FD0DC084E0B7
:100CC00090E00F5F1F4F281739074CF461E0F801DF
:100CD00086810E949301EDCF88E090E0F2CF8CE90D
:100CE00096E80197F1F760E08C810E941B0160E0BB
:100CF0008E810E941B018D818F3F19F060E00E9460
:100D00001B016F8564FD34C063E0CE010E94940432
:100D100004E213E2C8010197F1F763E0CE010E94FB
:100D20009404C8010197F1F763E0CE010E94940496
:100D300088E291E00197F1F762E0CE010E9494040D
:100D40006F856062CE010E94FE0584E0888B6CE0B6
:100D5000CE010E94FE05CE010E94300682E0898B02
:100D600066E0CE01DF91CF911F910F910C94FE05AB
:100D70006062CE010E94FE0584E293E20197F1F7E2
:100D80006F856062CE010E94FE0588E291E00197C6
:100D9000F1F76F856062CE010E94FE05D1CF809190
:100DA0006F028111FCCF942F81E080936F028093BA
:100DB0006E022FEF20936D0210926C02240F20938D
:100DC0006B0280934A0280914A02660F771F682B5C
:100DD00060934A0280914902813019F510924902CC
:100DE00080914A028093BB008091BC0083FDF8CFC4
:100DF00085EC8093BC0080916F028130E1F380919B
:100E00006C02841710F490916C02ABE4B2E0E6EA55
:100E1000F1E080E0891307C010929502809394025C
:100E2000089585EEE6CF2D9121938F5FF3CF0F9339
:100E30001F93CF93DF938C0181E08093700288E64B
:100E400080939102109293021092920260E086E9E0
:100E500092E00E94FC0381E00E949100882331F01F
:100E600080E0DF91CF911F910F91089547E050E00E
:100E700068E670E086E992E00E94CF0680919402D5
:100E800090919502891B990B079754F386E992E09C
:100E90000E94BC03C82F982F92959770DAE08C2F90
:100EA0008F709D9F800D1124F801808386E992E068
:100EB0000E94BC03982F92959F708F709D9F800D0C
:100EC0001124F801818386E992E00E94BC03982FE7
:100ED000929593708F709D9F800D1124F8018283ED
:100EE00086E992E00E94BC03982F92959F708F70C4
:100EF0009D9F800D1124F801838386E992E00E9472
:100F0000BC03982F92959F708F709D9F800D112428
:100F1000F801848386E992E00E94BC03982F9295A1
:100F20009F708F709D9F800D1124F801858386E945
:100F300092E00E94BC03982F9F70925E82958F7002
:100F40008D9F900D1124F80196838C2F8095881F1A
:100F50008827881F86CFEF92FF920F931F93CF931E
:100F6000DF93EC017B01198218821B821A821D8299
:100F70001C82FB0101900020E9F731978F01061BCD
:100F8000170BB8016F5F7F4F90E080E00E94DB138A
:100F90000097B9F0998388831B830A832C813D8154
:100FA000232B11F4FC0110821D830C83B70188816F
:100FB0009981DF91CF911F910F91FF90EF900C9449
:100FC000A11488819981009711F00E94521319820F
:100FD00018821D821C821B821A82DF91CF911F9181
:100FE0000F91FF90EF9008951F920F920FB60F92FE
:100FF00011242F933F934F935F936F937F938F931E
:101000009F93AF93BF93EF93FF9380913D02909195
:101010003E02A0913F02B0914002892B8A2B8B2B7C
:10102000D1F190913802E0913902F0913A02808139
:101030008927808380913D0290913E02A0913F02DA
:10104000B0914002181619061A061B069CF48091EE
:101050003D0290913E02A0913F02B0914002019763
:10106000A109B10980933D0290933E02A0933F02F3
:10107000B0934002FF91EF91BF91AF919F918F91FB
:101080007F916F915F914F913F912F910F900FBE84
:101090000F901F901895809130010E946701EACF50
:1010A0001F920F920FB60F9211242F933F938F939D
:1010B0009F93AF93BF9380910A0290910B02A091EE
:1010C0000C02B0910D023091090226E0230F2D375A
:1010D00058F50296A11DB11D2093090280930A02C2
:1010E00090930B02A0930C02B0930D0280910E021C
:1010F00090910F02A0911002B09111020196A11DD2
:10110000B11D80930E0290930F02A0931002B09332
:101110001102BF91AF919F918F913F912F910F90AD
:101120000FBE0F901F90189529E8230F0396A11D5D
:10113000B11DD2CF1F920F920FB60F9211242F9391
:101140003F934F935F936F937F938F939F93AF934F
:10115000BF93EF93FF938091B900887F803609F4A5
:101160004AC0F0F5883209F4A5C018F5803109F4B9
:1011700099C0B8F4882309F4F5C0883009F492C006
:10118000FF91EF91BF91AF919F918F917F916F915F
:101190005F914F913F912F910F900FBE0F901F9035
:1011A0001895883109F486C0803251F780936D021A
:1011B00014C0803409F49BC040F48033B9F3883301
:1011C000F9F680936D0285ECAEC0803509F483C0DA
:1011D000883509F494C0883499F60E946B03D0CF07
:1011E000883909F48AC038F5883729F050F48836F0
:1011F00011F0803729F683E080936F021092080285
:1012000055C0883809F479C0803919F0803809F060
:10121000B7CF80910802803208F06FC0E0910802D9
:1012200081E08E0F809308028091BB00F0E0E851CE
:10123000FE4F80833BC0803B39F0D0F4803A09F404
:1012400077C0883A09F09CCF84E080936F021092B7
:10125000E7011092E601F0E0E0E009958091E601F7
:1012600081110FC081E08093E6011092C60109C090
:10127000803C09F4A8CF883C09F4A5CF883B09F04D
:101280007FCFE091E70181E08E0F8093E701F0E0EE
:10129000EA53FE4F80818093BB009091E7018091DB
:1012A000E60129C080914A028093BB0085EC8093BF
:1012B000BC0066CF90916C0280916B02981758F534
:1012C000E0916C0281E08E0F80936C02F0E0E55BB0
:1012D000FD4F8081E9CFE0916C0281E08E0F809319
:1012E0006C028091BB00F0E0E55BFD4F8083909144
:1012F0006C0280916B029817C8F285E8D8CFE09114
:101300006C0281E08E0F80936C028091BB00F0E054
:10131000E55BFD4F808380916E0281115ECF81E09D
:101320008093490284EA8093BC0010926F0228CF18
:1013300085EC8093BC0010926F028091080280328D
:1013400030F4E0910802F0E0E851FE4F1082609125
:10135000080270E088EE91E0F0E0E0E0099510927C
:1013600008020ECF10926D0238CFCF92DF92EF922B
:10137000FF920F931F93E82FF92F05C00150110919
:101380002109310961F1908196239417B9F305C0C1
:10139000015011092109310911F19081962394130B
:1013A000F7CFC12CD12CE12CF12C0AC08FEFC81A39
:1013B000D80AE80AF80A0C151D052E053F0579F034
:1013C00080818623841791F36C2D7D2D8E2D9F2D8A
:1013D0001F910F91FF90EF90DF90CF90089560E004
:1013E00070E080E090E01F910F91FF90EF90DF9010
:1013F000CF9008958F929F92AF92BF92EF92FF92FB
:101400000F931F93CF93DF93109295021092940243
:1014100010929302109292020E948E0306E912E04B
:10142000F8011382128288EE882E83E0982EA12C78
:10143000B12C84829582A682B7829BE3E92E91E04B
:10144000F92EF182E082CCEDD2E01B821A828BE48D
:1014500091E0998388838DE08C838CE08D838BE091
:101460008E8385E08F8384E0888783E0898782E0AC
:101470008A871B861C861D861E861F8661E0CE011C
:101480000E9438068BE491E09983888386E090E09F
:10149000998F888F61E00E949301E6EDF2E087E08A
:1014A00090E0918380838FEF9FEF938382831582F7
:1014B000148261E087E00E9493011093D5020093AB
:1014C000D402ECEBF2E01382128284829582A6822F
:1014D000B782F182E082E0EBF2E088E090E0918375
:1014E000808389E090E09383828314821582168240
:1014F00017821086118612861386A6EAB2E011962C
:10150000FC93EE9313961C921E92129788E790E03C
:1015100015969C938E93149717961C921E9216976D
:101520001092A5021092A402DF91CF911F910F910A
:10153000FF90EF90BF90AF909F908F900895CF93C2
:10154000DF93CDB7DEB728970FB6F894DEBF0FBE96
:10155000CDBF789484B5826084BD84B5816084BD3C
:1015600085B5826085BD85B5816085BD80916E0041
:10157000816080936E001092810080918100826072
:1015800080938100809181008160809381008091AF
:1015900080008160809380008091B100846080939E
:1015A000B1008091B00081608093B00080917A009A
:1015B000846080937A0080917A00826080937A00C0
:1015C00080917A008E7F80937A0080917A00806883
:1015D00080937A001092C1001092950210929402AA
:1015E00010929302109292020E948E038CEB92E072
:1015F0009093D5028093D40260E08091B0020E9463
:10160000930161E08091B2020E9493010E94C401A3
:1016100028EE33E040E050E00E946F1220932A024F
:1016200030932B0240932C0250932D0280E090E0E7
:10163000A0EAB2E48093260290932702A0932802A6
:10164000B093290280E090E0A0E1B1EC80931B020E
:1016500090931C02A0931D02B0931E028FE192E0B2
:101660000E94170784E192E00E94170781E392E04D
:101670000E9417078091330290E090932F0280938D
:101680002E021092300262E08CED92E00E94380649
:1016900060E080E00E941F0668E271E080E00E9446
:1016A000010660E271E081E00E94010668E171E0FC
:1016B00082E00E94010660E171E085E00E9401067F
:1016C00068E071E083E00E94010660E071E084E080
:1016D0000E940106A8EE4A2EA3E05A2E612C712C1E
:1016E0004E0129E0820E911CB0E12B2E312C81E3BA
:1016F00092E00E941707882309F4C4C081E0809318
:1017000030022091330280912E0290912F022817EF
:10171000190659F080E296E00E941C028091330283
:1017200090E090932F0280932E020E94C401A301A7
:1017300092010E946F1280912A0290912B02A09137
:101740002C02B0912D02281B390B4A0B5B0B213D5B
:1017500037404105510508F40CC10E94C401A301A2
:1017600092010E946F1220932A0230932B02409321
:101770002C0250932D028CE58093910210929202DC
:1017800081E00E9491006AE070E080E090E00E94B9
:10179000E9018091D4029091D50221E0209370025A
:1017A0001092930210929202DC01ED91FC91019053
:1017B000F081E02D63E009958091D4029091D502EB
:1017C000DC01ED91FC910190F081E02D60E0099544
:1017D0008091D4029091D502DC01ED91FC910190B1
:1017E000F081E02D64E0099581E00E949100811173
:1017F0009EC062E070E080E090E00E94E90148E075
:1018000050E06CE570E08091D4029091D5020E9486
:10181000CF068E010F5F1F4F68018091D402909117
:10182000D502DC01ED91FC910680F781E02D099550
:10183000F60181936F018E169F0679F789818330B7
:1018400009F075C0888590E0982F88272F81280F90
:10185000392F311D47E08FEF9FEF4150B1F0D80194
:101860005D918D01852758E0BC01617077279695C1
:101870008795672B21F0B1E08B27B0EA9B27515069
:1018800099F7EBCF109230023CCF2817390709F0B7
:101890004EC01D81612F70E0762F662766277F7707
:1018A0008E81682B90E080E00E94FA0F20E030E00B
:1018B00040E251E40E94BD1117FD90586093C802A8
:1018C0007093C9028093CA029093CB0220E030E06B
:1018D00040E151E40E945B1020E030E040EA50E437
:1018E0000E94BD1120E030E040E052E40E9451111E
:1018F0006093CC027093CD028093CE029093CF027E
:101900006B817C8176276727762790E080E00E94B4
:10191000FA0F20E030E040E251E40E94BD116093F4
:10192000D0027093D1028093D2029093D302A09000
:10193000C802B090C902C090CA02D090CB022091D8
:101940002602309127024091280250912902C601B7
:10195000B5010E94F50F87FF11C1A0922602B09237
:101960002702C0922802D09229028FE192E00E94C1
:101970001707B0903102C090A602D090A70260E095
:10198000F60182810E941B0161E0D60112968C91C2
:101990000E941B01C1010197F1F760E0F60182810D
:1019A0000E941B01D6018D919C919927FC01ED5657
:1019B000FF4F6491FC01EC54FF4FE491F0E0EE0F17
:1019C000FF1FEE58FF4F8591949100E211EA27E046
:1019D00030E0462F0E94B50961157105810591051A
:1019E00091F06F5F7F4F8F4F9F4FE4E0660F771F3F
:1019F000881F991FEA95D1F7F3E09695879577951B
:101A00006795FA95D1F7F60164837583868397838A
:101A10000E94FC0F26E933E44BE05DE30E945B107B
:101A200020E030E040E05FE30E945B10D6011896B2
:101A30006D937D938D939C931B97E091A602F091FB
:101A4000A70260857185828593850E942F129B0174
:101A500077FF02C02F5F3F4FC9018E7F9093AD0289
:101A60008093AC028436910530F52B2D30E0409107
:101A7000A8025091A9024115510509F099C0409161
:101A8000AE025091AF022417350789F0241B350BA5
:101A90002230310560F09C01205131092831310597
:101AA00030F4E1E0F0E0F093A902E093A802909313
:101AB000AB028093AA028091A8029091A90284307F
:101AC000910509F0CBC0809112029091130200970A
:101AD00009F0BEC022E030E03093130220931202DE
:101AE00080EE96E00E941C021092A9021092A802B9
:101AF0004EE650E05093AB024093AA028CED92E088
:101B00000E9430068091A202883020F08D3008F4C7
:101B10008DE08E508770806480937C0080917A0085
:101B2000806480937A0080917A0086FDFCCF90914A
:101B30007800809179008927982789279093A502BA
:101B40008093A402893191050CF499C082339105E8
:101B50000CF4B8C0843691050CF4B8C086399105F0
:101B60000CF4B8C0883C91050CF4B8C08A3F9105CC
:101B70000CF088C08AEFE82EF12C84C020911B0263
:101B800030911C0240911D0250911E02C601B50108
:101B90000E94651218160CF0ECCEA0921B02B092B7
:101BA0001C02C0921D02D0921E0284E192E0DFCEA0
:101BB00041305105C9F42091AA023091AB02281797
:101BC000390738F423E030E03093A9022093A802CB
:101BD0006ECF8217930708F06ACF42E050E050932F
:101BE000A9024093A80263CF42305105D9F4409135
:101BF000AA025091AB024817590728F41092A90283
:101C00001092A80254CF8417950708F050CFA4E093
:101C1000B0E0B093A902A093A8023093AF02209342
:101C2000AE0245CF4330510509F041CF4091AA02A1
:101C30005091AB028417950708F34817590708F02D
:101C400036CFE5E0F0E0F093A902E093A802E5CFFB
:101C50000197909313028093120242CF059709F0E7
:101C600051CF80911202909113028230910529F494
:101C7000109213021092120233CF0196EACF59E16B
:101C8000E52EF12C0091F4021091F50261E0802F15
:101C90000E949301F801FF27E458FF4FE491E430DC
:101CA00009F49EC0F8F4E23079F1E33009F493C00E
:101CB00060E050E8E516F1040CF061E0802F0E942E
:101CC0001B0126C042E3E42EF12CDCCF34E6E32EE8
:101CD000F12CD8CF26E9E22EF12CD4CF98ECE92EC6
:101CE000F12CD0CFE83009F485C0E93009F48AC07E
:101CF000E530F1F680918000806280938000F09260
:101D00008B00E0928A0004C084B5806884BDE7BC83
:101D100020E030E048EC52E46091B8027091B902E2
:101D20008091BA029091BB020E94F50F61E087FF9B
:101D300071C08FE00E941F0660E08CED92E00E946F
:101D4000140560E080E00E941F06809112029091CD
:101D5000130260E0009709F064C080E00E941F0653
:101D600061E08CED92E00E94140583EA91E00E940C
:101D70007C046091C8027091C9028091CA0290915E
:101D8000CB020E94230580E20E941A0565E08CEDDB
:101D900092E00E9414058BE591E00E947C0461E0D2
:101DA00080E00E941F0662E08CED92E00E94140524
:101DB00083EA91E00E947C046091D0027091D1028C
:101DC0008091D2029091D3020E9423058DE591E08B
:101DD0000E947C047AC084B5806284BDE8BC98CF40
:101DE00080918000806880938000F0928900E0926A
:101DF00088008ECF8091B00080688093B000E09220
:101E0000B30086CF8091B00080628093B000E092F2
:101E1000B4007ECF8FE00E941F0680E20E941A0568
:101E200090CF019709F059C080E00E941F0664E03E
:101E30008CED92E00E94140583EA91E00E947C04FC
:101E400060911B0270911C0280911D0290911E02F4
:101E50000E94230583EA91E00E947C04809116028F
:101E600090E00E94ED0580E691E00E947C04809164
:101E7000150290E00E94ED0561E080E00E941F06DF
:101E800063E08CED92E00E94140583EA91E00E94E9
:101E90007C04609126027091270280912802909123
:101EA00029020E94230583EA91E00E947C0480912C
:101EB000210290E00E94ED0580E691E00E947C0402
:101EC0008091200290E00E94ED0580E090E0892B57
:101ED00009F40DCC0E9400000ACC80E00E941F068D
:101EE00080913002882309F47DC08091330290E014
:101EF0000E94ED058AE30E941A058091320290E06B
:101F00000E94ED058AE30E941A058091310290E05B
:101F10000E94ED0561E080E00E941F06609135029D
:101F200070E090E080E04AE00E94380480E20E9485
:101F30001A05E0913602E150EC30B8F4F0E0ED55CE
:101F4000F04F0C94B012AF0FD10FD40FD70FDA0FA0
:101F5000DD0FE00FE30FE60FE90FEC0FEF0F62E686
:101F600071E0CE0101960E94AB074D815E816981CF
:101F70007A818CED92E00E94EE0089819A810E9424
:101F8000521380E20E941A056091370270E06E548D
:101F9000784F072E000C880B990B4AE00E943804FA
:101FA00094CF66E671E0DDCF6AE671E0DACF6EE6E7
:101FB00071E0D7CF62E771E0D4CF66E771E0D1CFAF
:101FC0006AE771E0CECF6EE771E0CBCF62E871E0F7
:101FD000C8CF66E871E0C5CF6BE871E0C2CF6FE8AB
:101FE00071E0BFCF83E991E0F3CE0E94371008F48F
:101FF00081E00895E89409C097FB3EF490958095A0
:10200000709561957F4F8F4F9F4F9923A9F0F92FBE
:1020100096E9BB279395F695879577956795B7953C
:10202000F111F8CFFAF4BB0F11F460FF1BC06F5F22
:102030007F4F8F4F9F4F16C0882311F096E911C034
:10204000772321F09EE8872F762F05C0662371F055
:1020500096E8862F70E060E02AF09A95660F771F69
:10206000881FDAF7880F9695879597F90895990F45
:102070000008550FAA0BE0E8FEEF16161706E80752
:10208000F907C0F012161306E407F50798F0621B73
:10209000730B840B950B39F40A2661F0232B242B48
:1020A000252B21F408950A2609F4A140A6958FEF67
:1020B000811D811D08950E946E100C94DF100E94F6
:1020C000D11038F00E94D81020F0952311F00C9414
:1020D000C8100C94CE1011240C9413110E94F0100F
:1020E00070F3959FC1F3950F50E0551F629FF0016B
:1020F000729FBB27F00DB11D639FAA27F00DB11D84
:10210000AA1F649F6627B00DA11D661F829F22270C
:10211000B00DA11D621F739FB00DA11D621F839F93
:10212000A00D611D221F749F3327A00D611D231F69
:10213000849F600D211D822F762F6A2F11249F57B7
:1021400050409AF0F1F088234AF0EE0FFF1FBB1FBA
:10215000661F771F881F91505040A9F79E3F510579
:1021600080F00C94C8100C9413115F3FE4F3983E78
:10217000D4F3869577956795B795F795E7959F5F23
:10218000C1F7FE2B880F911D9695879597F90895B5
:1021900097F99F6780E870E060E008959FEF80EC1A
:1021A000089500240A9416161706180609060895BD
:1021B00000240A9412161306140605060895092E23
:1021C0000394000C11F4882352F0BB0F40F4BF2B92
:1021D00011F460FF04C06F5F7F4F8F4F9F4F0895D2
:1021E00057FD9058440F551F59F05F3F71F04795C8
:1021F000880F97FB991F61F09F3F79F087950895AD
:10220000121613061406551FF2CF4695F1DF08C0CB
:10221000161617061806991FF1CF869571056105E8
:1022200008940895E894BB2766277727CB0197F990
:1022300008952F923F924F925F926F927F928F926A
:102240009F92AF92BF92CF92DF92EF92FF920F9345
:102250001F93CF93DF93CDB7DEB7CA1BDB0B0FB64F
:10226000F894DEBF0FBECDBF09942A88398848880C
:102270005F846E847D848C849B84AA84B984C884A2
:10228000DF80EE80FD800C811B81AA81B981CE0F99
:10229000D11D0FB6F894DEBF0FBECDBFED0108957E
:1022A0005058BB27AA270E9468110C94DF100E9487
:1022B000D11038F00E94D81020F039F49F3F19F463
:1022C00026F40C94CE100EF4E095E7FB0C94C810A5
:1022D000E92F0E94F01058F3BA17620773078407BA
:1022E000950720F079F4A6F50C9412110EF4E09500
:1022F0000B2EBA2FA02D0B01B90190010C01CA01C0
:10230000A0011124FF27591B99F0593F50F4503E6A
:1023100068F11A16F040A22F232F342F4427585F5C
:10232000F3CF469537952795A795F0405395C9F774
:102330007EF41F16BA0B620B730B840BBAF091502C
:10234000A1F0FF0FBB1F661F771F881FC2F70EC0CB
:10235000BA0F621F731F841F48F48795779567959E
:10236000B795F7959E3F08F0B0CF9395880F08F08A
:102370009927EE0F9795879508950E94D1110C9497
:10238000DF100E94D81058F00E94D11040F029F4BC
:102390005F3F29F00C94C81051110C9413110C9448
:1023A000CE100E94F01068F39923B1F3552391F3F6
:1023B000951B550BBB27AA2762177307840738F0B4
:1023C0009F5F5F4F220F331F441FAA1FA9F335D011
:1023D0000E2E3AF0E0E832D091505040E695001CC5
:1023E000CAF72BD0FE2F29D0660F771F881FBB1F7F
:1023F000261737074807AB07B0E809F0BB0B802D5D
:10240000BF01FF2793585F4F3AF09E3F510578F088
:102410000C94C8100C9413115F3FE4F3983ED4F36E
:10242000869577956795B795F7959F5FC9F7880F5C
:10243000911D9695879597F90895E1E0660F771FAE
:10244000881FBB1F621773078407BA0720F0621B3F
:10245000730B840BBA0BEE1F88F7E09508950E946A
:1024600036126894B1110C94131108950E94F8105B
:1024700088F09F5798F0B92F9927B751B0F0E1F045
:10248000660F771F881F991F1AF0BA95C9F714C0F5
:10249000B13091F00E941211B1E008950C94121124
:1024A000672F782F8827B85F39F0B93FCCF386952E
:1024B00077956795B395D9F73EF49095809570958B
:1024C00061957F4F8F4F9F4F08950E94371008F4FA
:1024D0008FEF08950E943710880B990B0895A1E2A1
:1024E0001A2EAA1BBB1BFD010DC0AA1FBB1FEE1F8E
:1024F000FF1FA217B307E407F50720F0A21BB30BD9
:10250000E40BF50B661F771F881F991F1A9469F754
:1025100060957095809590959B01AC01BD01CF01B0
:102520000895052E97FB1EF400940E94A81257FDF3
:1025300007D00E946F1207FC03D04EF40C94A8122F
:1025400050954095309521953F4F4F4F5F4F0895DF
:1025500090958095709561957F4F8F4F9F4F08950F
:10256000EE0FFF1F0590F491E02D09940F931F9338
:10257000CF93DF938230910510F482E090E0E091F8
:10258000F802F091F90230E020E0B0E0A0E03097EE
:1025900099F42115310509F44AC0281B390B243060
:1025A0003105D8F58A819B816115710589F1FB019F
:1025B00093838283FE0111C0408151810281138186
:1025C00048175907E0F04817590799F4109761F038
:1025D00012960C93129713961C933296CF01DF91AB
:1025E000CF911F910F9108950093F8021093F90273
:1025F000F4CF2115310551F04217530738F0A901E6
:10260000DB019A01BD01DF01F801C1CFEF01F9CF74
:102610009093F9028093F802CDCFFE01E20FF31FF1
:10262000819391932250310939832883D7CF209108
:10263000F6023091F702232B41F4209133013091BF
:1026400034013093F7022093F6022091310130914A
:1026500032012115310541F42DB73EB740913501C6
:1026600050913601241B350BE091F602F091F702F0
:10267000E217F307A0F42E1B3F0B2817390778F059
:10268000AC014E5F5F4F2417350748F04E0F5F1FB8
:102690005093F7024093F602819391939FCFF0E01D
:1026A000E0E09CCFCF93DF930097E9F0FC013297F5
:1026B00013821282A091F802B091F902ED0130E08C
:1026C00020E01097A1F420813181820F931F209187
:1026D000F6023091F7022817390709F061C0F0932C
:1026E000F702E093F602DF91CF910895EA01CE1749
:1026F000DF07E8F54A815B819E0141155105B1F77D
:10270000E901FB83EA8349915991C40FD51FEC1766
:10271000FD0761F4808191810296840F951FE90184
:1027200099838883828193819B838A83F0E0E0E0B0
:1027300012968D919C9113970097B9F52D913C912C
:102740001197CD010296820F931F2091F6023091CE
:10275000F7022817390739F6309751F51092F90228
:102760001092F802B093F702A093F602BCCFD38385
:10277000C28340815181840F951FC817D90761F426
:102780004E5F5F4F88819981480F591F5183408365
:102790008A819B81938382832115310509F0B0CF13
:1027A000F093F902E093F8029ECFFD01DC01C0CF67
:1027B00013821282D7CFB0E0A0E0E1EEF3E10C94F7
:1027C0001B118C01009751F4CB010E94B6128C01B1
:1027D000C801CDB7DEB7E0E10C943711FC01E60F7C
:1027E000F71F9C0122503109E217F30708F49DC03E
:1027F000D901CD91DC911197C617D70798F0C53054
:10280000D10530F3CE0104978617970708F3C61B4E
:10281000D70B2297C193D1936D937C93CF010E94E4
:102820005213D6CF5B01AC1ABD0A4C018C0E9D1E13
:10283000A091F802B091F902512C412CF12CE12C1D
:10284000109731F58091F6029091F702881599055D
:1028500009F05CC04616570608F058C08091310157
:1028600090913201009741F48DB79EB740913501A8
:1028700050913601841B950BE817F90708F055C0F5
:10288000F093F702E093F602F90171836083A0CF21
:102890008D919C91119712966C90129713967C9043
:1028A0001397A815B90559F56C0142E0C40ED11C67
:1028B000CA14DB0420F1AC014A195B09DA01129653
:1028C000159780F06282738251834083D9016D93A2
:1028D0007C93E114F10471F0D7011396FC93EE930D
:1028E000129776CF22968C0F9D1FF90191838083DA
:1028F000F301EFCFF093F902E093F80269CF4816A5
:10290000590608F42C017D01D3019ACFCB010E9416
:10291000B6127C01009749F0AE01B8010E949814EC
:10292000C8010E945213870153CF10E000E050CF3E
:10293000FB01DC0102C001900D9241505040D8F7DC
:102940000895FB01DC0101900D920020E1F708954C
:04295000F894FFCF29
:10295400040E0E0E0E1F1F0E040A0A0A0A11110E8F
:102964001C141C000000000004040A0A1111110EBA
:10297400040A0A0E0E1F1F0E001F110A040404008D
:10298400FF0000FA02800000000000FC03CF036493
:1029940003BC03AD03AC03000000001405EE006E9D
:1029A400616E00696E66006F766600430020250044
:1029B4003A00537479004C7574004D6172004B7782
:1029C40069004D616A00437A65004C69700053697F
:1029D400650057727A005061C5BA004C69730047AC
:1029E4007275005254432072656164206661696C9B
:0629F400656421200000D3
:00000001FF
